:1004630050617373576F72643A004F4B2020200022
:060473004552524F5200F9
:10018C0012048E7BFF7A0479637D017F01120404D3
:10019C001200038F1CE51C60F7D3940A74809480C2
:1001AC005041C3E5199404E51894005020AE1AAFE1
:1001BC001B7C007D0A1202768E1A8F1BE51C75F0D3
:1001CC000A84E5F0251BF51BE4351AF51A0519E52B
:1001DC001970020518750C04AB1BAA1A7D017F025D
:1001EC001203E0E51C640B7032E51B6401451A7BBD
:1001FC00FF70067A04796D80047A0479737D0B7F25
:10020C0001120404E4F518F519F51AF51B750C0424
:10021C00AB1BAA1A7D017F021203E0E51C640C6083
:10022C000302019CF518F519F51AF51B750C04ABB6
:0D023C001BAA1A7D017F021203E002019C43
:10047900EF1FAC0670011E4C600A7D027CC7DCFED2
:04048900DDFC80EC2A
:01048D00224C
:0604A200C2A58F80D2A765
:0804A8007F027EEFDEFEDFFCA7
:0104B0002229
:0A04BD00C2A61204A2C2A70204A8FE
:10042700CFCDCFCECCCE1202887C007D0A120288B7
:04043700ED2430FF81
:0A043B00D2A61204A2C2A70204A870
:10044500AE07EEFB7A0064017004ED148009EB64DD
:0E045500024A7009ED243F4480FF1204BD22CC
:10048E007F381204BD7F0C1204BD7F061204BD7F9F
:04049E00010204BD96
:0A04C700AC03120445AF0402043B2D
:060404008B088A09890A39
:10040A00120445E4FDAB08AA09A90A8D8275830086
:0C041A00120249FF600612043B0D80E94D
:0104260022B3
:0A03AF00EF24FFFDEE34FFFC7F0A8F
:0803B9008E0D8F0E8C0F8D10CC
:1003C1007F017E00E4FBEBC39510E50F6480F874B8
:0E03D1008098500AAC0DAD0E1202760B80E83B
:0103DF0022FB
:0403E0008A0A8B0BEF
:1003E400120445AA0CEAFF7E00D394007480948022
:0F03F400400D1203AFAC0AAD0B1204271A80E6BE
:0104030022D6
:040328008B828A83B7
:10032C00120445C3E58364809480400D7F2B120436
:10033C003B85831685821780107F2D12043BC3E406
:10034C009582F517E49583F516AA15EAFF7E00D37E
:10035C00940074809480400D1203AFAC16AD17124C
:05036C0004271A80E6E1
:010371002269
:0402DD008A1F8B20C9
:1002E100120445AA21EAD39400748094804037EA2D
:1002F10024FFFDE434FFFC7F107E001203B9AC1F24
:10030100AD20CFCDCFCECCCE120288EF540FFEC39D
:10031100940A74809480EE5004243080022437FFC4
:0603210012043B1A80BF2C
:0103270022B3
:040372008A248B2529
:10037600120445AA26EAFF7E00D394007480948076
:100386004026EF24FFFDEE34FFFC7F021203B9ACDA
:1003960024AD25CFCDCFCECCCE120288EF5401248A
:0803A60030FF12043B1A80CD68
:0103AE00222C
:10000300E4F5087590FFC2932097137F14FE120442
:10001300793097FD7F147E001204797508012096CC
:10002300147F147E001204793096FD7F147E001233
:1000330004797508052095147F147E001204793025
:1000430095FD7F147E001204797508092094147FAE
:10005300147E001204793094FD7F147E001204791B
:1000630075080D7590FFC2922097147F147E0012BD
:1000730004793097FD7F147E0012047975080220FD
:1000830096147F147E001204793096FD7F147E004F
:100093001204797508062095147F147E00120479E2
:1000A3003095FD7F147E0012047975080A2094149C
:1000B3007F147E001204793094FD7F147E001204B5
:1000C3007975080E7590FFC2912097147F147E00F6
:1000D3001204793097FD7F147E00120479750803AA
:1000E3002096147F147E001204793096FD7F147ECF
:1000F300001204797508072095147F147E001204FA
:10010300793095FD7F147E0012047975080B2094D5
:10011300147F147E001204793094FD7F147E001244
:10012300047975080F7590FFC2902097147F147E91
:10013300001204793097FD7F147E0012047975084C
:10014300042096147F147E001204793096FD7F14E8
:100153007E001204797508082095147F147E00121E
:1001630004793095FD7F147E0012047975080C2004
:1001730094147F147E001204793094FD7F147E0062
:08018300120479750810AF08A1
:01018B002251
:030000000204B146
:0C04B100787FE4F6D8FD75812602018CEE
:10024900BB010CE58229F582E5833AF583E022506A
:1002590006E92582F8E622BBFE06E92582F8E222B4
:0D026900E58229F582E5833AF583E49322CE
:10027600EF8DF0A4A8F0CF8CF0A428CE8DF0A42E9C
:02028600FE2256
:10028800BC000BBE0029EF8DF084FFADF022E4CC5A
:10029800F875F008EF2FFFEE33FEEC33FCEE9DEC23
:1002A800984005FCEE9DFE0FD5F0E9E4CEFD22ED69
:1002B800F8F5F0EE8420D21CFEADF075F008EF2FB3
:1002C800FFED33FD4007985006D5F0F222C398FDA4
:0502D8000FD5F0EA2241
:00000001FF
