:10016900120267E4F525F526750C03AB26AA257D51
:10017900017F011201CF0526E526700205257FE8DA
:100189007E03120252750C03AB26AA257D017F015D
:050199001201CF80E11E
:06027B00C2A58F80D2A78E
:080281007F027EEFDEFEDFFCD0
:010289002252
:0A029600C2A612027BC2A702028179
:10021600CFCDCFCECCCE1200427C007D0A1200425A
:04022600ED2430FF94
:0A022A00D2A612027BC2A7020281D5
:10023400AE07EEFB7A0064017004ED148009EB64F0
:0E024400024A7009ED243F4480FF1202962208
:100267007F381202967F0C1202967F061202967F43
:0402770001020296E8
:0A02A000AC03120234AF0402022A7C
:0601F3008B228A238924FF
:1001F900120234E4FDAB22AA23A9248D827583005F
:0C020900120003FF600612022A0D80E9BB
:0102150022C6
:0A019E00EF24FFFDEE34FFFC7F0AA2
:0801A8008E0D8F0E8C0F8D10DF
:1001B0007F017E00E4FBEBC39510E50F6480F874CB
:0E01C0008098500AAC0DAD0E1200300B80E896
:0101CE00220E
:0401CF008A0A8B0B02
:1001D300120234AA0CEAFF7E00D394007480948048
:0F01E300400D12019EAC0AAD0B1202161A80E6F7
:0101F20022EA
:0400E2008B828A8300
:1000E600120234C3E58364809480400D7F2B120294
:1000F6002A85831685821780107F2D12022AC3E473
:100106009582F517E49583F516AA15EAFF7E00D3C6
:10011600940074809480400D12019EAC16AD1712A7
:0501260002161A80E63C
:01012B0022B1
:040097008A1A8B1B1B
:10009B00120234AA1CEAD39400748094804037EA8D
:1000AB0024FFFDE434FFFC7F107E001201A8AC1A84
:1000BB00AD1BCFCDCFCECCCE120042EF540FFEC333
:1000CB00940A74809480EE5004243080022437FF0D
:0600DB0012022A1A80BF88
:0100E10022FC
:04012C008A1F8B207B
:10013000120234AA21EAFF7E00D3940074809480D6
:100140004026EF24FFFDEE34FFFC7F021201A8AC35
:100150001FAD20CFCDCFCECCCE120042EF54012424
:0801600030FF12022A1A80CDC3
:010168002274
:10025200EF1FAC0670011E4C600A7D027CC7DCFEFB
:04026200DDFC80EC53
:010266002275
:0300000002028A6F
:0C028A00787FE4F6D8FD7581260201693A
:10000300BB010CE58229F582E5833AF583E02250B2
:1000130006E92582F8E622BBFE06E92582F8E222FC
:0D002300E58229F582E5833AF583E4932216
:10003000EF8DF0A4A8F0CF8CF0A428CE8DF0A42EE4
:02004000FE229E
:10004200BC000BBE0029EF8DF084FFADF022E4CCA2
:10005200F875F008EF2FFFEE33FEEC33FCEE9DEC6B
:10006200984005FCEE9DFE0FD5F0E9E4CEFD22EDB1
:10007200F8F5F0EE8420D21CFEADF075F008EF2FFB
:10008200FFED33FD4007985006D5F0F222C398FDEC
:050092000FD5F0EA2289
:00000001FF
